:100000000C9452000C94B0040C946F000C946F008C
:100010000C946F000C946F000C946F000C94C5004E
:100020000C946F000C946F000C946F000C946F0094
:100030000C946F000C9483110C946F000C946F005F
:100040000C946F000C9418140C9432060C946F00EE
:100050000C9409060C94FD110C946F000C946F0025
:100060000C946F000C946F00036EDB363D9A9999E7
:10007000993DABAAAA2A3E000000803F072C7AA532
:10008000BA6CC590DA3B9365FC8BBC53F810FD3C11
:100090005692834DBD879D3AB63DCBC9BF5BBE73BB
:1000A000DA0FC93F11241FBECFEFD4E0DEBFCDBFB2
:1000B00012E0A0E0B1E0E2E4FEE302C005900D92A0
:1000C000A633B107D9F715E0A6E3B2E001C01D924F
:1000D000AA3CB107E1F70E94950C0C941F1F0C94E9
:1000E000000080913E028436B8F480913E028F5F1A
:1000F00080933E02E0913602F09137028081918137
:100100002091480230914902820F931F8050924003
:100110009093490280934802089580913F0284366B
:10012000B8F480913F028F5F80933F02E0913802E4
:10013000F09139028081918120914A0230914B02E5
:10014000820F931F8050924090934B0280934A02FB
:100150000895809140028436B8F4809140028F5F08
:1001600080934002E0913A02F0913B0280819181BC
:1001700020914C0230914D02820F931F805092408B
:1001800090934D0280934C0208951F920F920FB6E8
:100190000F9211242F933F934F935F936F937F930D
:1001A0008F939F93AF93BF93EF93FF9380913E0202
:1001B000843691F4809148029091490264E670E09F
:1001C0000E940D1C70937805609377051092490288
:1001D0001092480210923E0280913F02843691F4C0
:1001E00080914A0290914B0264E670E00E940D1CDF
:1001F00070937A056093790510924B0210924A022F
:1002000010923F0280914002843691F480914C021A
:1002100090914D0264E670E00E940D1C70937C0585
:1002200060937B0510924D0210924C021092400296
:10023000E0917705F091780580914102909142021A
:10024000BF01681B790B77FF03C0709561957F4FE5
:100250006536710524F54091790550917A058091B4
:10026000430290914402481B590B57FF03C050951D
:1002700041955F4F4536510594F420917B053091AF
:100280007C058091450290914602281B390B37FF6F
:1002900003C0309521953F4F2536310524F081E08C
:1002A00080933C020CC06531710534F44531510531
:1002B0001CF4253131051CF081E080933D02F09360
:1002C0004202E09341022091790530917A05309302
:1002D00044022093430280917B0590917C0590938A
:1002E000460280934502EF2B21F4232B11F4892B36
:1002F00019F081E080934702FF91EF91BF91AF9198
:100300009F918F917F916F915F914F913F912F912D
:100310000F900FBE0F901F9018954F925F926F92A3
:100320007F928F929F92AF92BF92CF92DF92EF9285
:10033000FF920F931F932C01809177059091780580
:1003400064E670E00E940D1C5B018091790590913C
:100350007A0564E670E00E940D1C7B0180917B05AC
:1003600090917C0564E670E00E940D1C9B01EE9C60
:10037000B001EF9C700DFE9C700D1124AA9CA00191
:10038000AB9C500DBA9C500D1124640F751FC90110
:10039000889F9001899F300D989F300D1124620F26
:1003A000731F882777FD8095982F0E94C2180E949E
:1003B000EE1D3B014C010027F7FC0095102FC801F2
:1003C000B7010E94C218A40193010E9486170E94DF
:1003D000B61C20E030E044E353E40E948C162BED81
:1003E0003FE049E450E40E948617F2016083718384
:1003F00082839383CC24B7FCC094DC2CC601B50166
:100400000E94C218A40193010E9486170E94B61C84
:1004100020E030E044E353E40E948C162BED3FE0F3
:1004200049E450E40E948617F20164837583868351
:1004300097831F910F91FF90EF90DF90CF90BF9027
:10044000AF909F908F907F906F905F904F900895A6
:100450001F9380E090E0A0E0B0E080936F05909360
:100460007005A0937105B093720580937305909306
:100470007405A0937505B0937605109278051092D7
:10048000770510927A051092790510927C051092EA
:100490007B05109249021092480210924B02109272
:1004A0004A021092420210924102109244021092AB
:1004B0004302109246021092450210923E021092A0
:1004C0003F021092400280E061E770E00E947912E2
:1004D000909337028093360281E06DE870E00E94CD
:1004E0007912909339028093380282E069EA70E0D1
:1004F0000E94791290933B0280933A021092470235
:1005000010E01F5FE12FF0E0EE0FFF1FEE0FFF1F67
:10051000E050FF4F608171818281938124E630E059
:1005200040E050E00E94E21B9B01AC0160E07DE2F4
:1005300081E391E00E94201C215030404040504017
:100540002F3F31054105510509F0D8F61092B00052
:100550001092B1002093B30082E08093B000212F6D
:100560002695269530E021703070220F331F220F20
:10057000331F812F869590E081709070880F991FAE
:10058000282B1170212B2093B1001092B200809182
:100590007000826080937000809147028823E1F3AD
:1005A00010923C0210923D021F9108958F929F92EB
:1005B000AF92BF92CF92DF92EF92FF920F931F9371
:1005C000DF93CF93CDB7DEB728970FB6F894DEBF91
:1005D0000FBECDBF4C018DE160E0AE014D5F5F4FBE
:1005E00026E030E00E94AB12069709F0A9C0BCC01B
:1005F0000F2EF0E0EF2EF0E0FF2EF0E80F2FF0E4EA
:100600001F2FF02D0AC00F2EF0E0EF2EF0E0FF2E8E
:10061000F0E00F2FF0E01F2FF02D4C8150E0342F31
:1006200022278B8190E0282B392B3170427050703B
:10063000249FC001259F900D349F900D1124892B7C
:1006400019F4E1E0F0E002C0EFEFFFEF4E8150E07F
:10065000342F22278D8190E0282B392B3170427066
:100660005070249FC001259F900D349F900D112440
:10067000892B21F421E0A22EB12C03C0AA24AA9434
:10068000BA2C488550E0342F22278F8190E0282B08
:10069000392B317042705070249FC001259F900DFE
:1006A000349F900D1124892B21F481E0C82ED12C88
:1006B00003C0CC24CA94DC2CBF01882777FD809529
:1006C000982F0E94C218A80197010E948C1620E062
:1006D00030E040E85DE30E948C16F4016083718392
:1006E00082839383B501882777FD8095982F0E9498
:1006F000C218A80197010E948C1620E030E040E863
:100700005DE30E948C16F40164837583868397836E
:10071000B601882777FD8095982F0E94C218A801FE
:1007200097010E948C1620E030E040E85DE30E94D3
:100730008C16F401608771878287938781E001C0FE
:1007400080E028960FB6F894DEBF0FBECDBFCF91E4
:10075000DF911F910F91FF90EF90DF90CF90BF90AE
:10076000AF909F908F9008958DE166E1AE014F5F4D
:100770005F4F21E030E00E94AB12019709F78DE155
:1007800069E0AE014E5F5F4F21E030E00E94AB12A6
:100790000197B1F6898190E08C709070823091055C
:1007A00091F08830910521F0892B09F421CF2BCFCE
:1007B0000F2EF0E0EF2EF0E0FF2EF0E00F2FF0E430
:1007C0001F2FF02D2ACF0F2EF0E0EF2EF0E0FF2E9E
:1007D000F0E80F2FFFE31F2FF02D1FCF2F923F9236
:1007E0004F925F926F927F928F929F92AF92BF9241
:1007F000CF92DF92EF92FF920F931F93DF93CF93ED
:10080000CDB7DEB72E970FB6F894DEBF0FBECDBFC3
:100810009E878D87CE0101960E94D602882309F417
:1008200082C010924F0269817A818B819C8120E085
:1008300030E048EC52E40E9486171B012C016D81C8
:100840007E818F81988520E030E048EC52E40E9460
:1008500086175B016C0169857A858B859C8520E014
:1008600030E048EC52E40E9486173B014C01C20183
:10087000B101A20191010E948C167B018C01C6017D
:10088000B501A60195010E948C169B01AC01C8011F
:10089000B7010E945F167B018C01C401B301A40162
:1008A00093010E948C169B01AC01C801B7010E9404
:1008B0005F160E94EE1D7B018C01C601B501A801E7
:1008C00097010E9486170E94B61C20E030E044E3A6
:1008D00053E40E948C162BED3FE049E450E40E9463
:1008E0008617ED85FE856083718382839383C201C1
:1008F000B101A80197010E9486170E94B61C20E052
:1009000030E044E353E40E948C162BED3FE049E4D1
:1009100050E40E948617ED85FE8564837583868387
:10092000978381E004C081E080934F0280E02E969F
:100930000FB6F894DEBF0FBECDBFCF91DF911F91F0
:100940000F91FF90EF90DF90CF90BF90AF909F906E
:100950008F907F906F905F904F903F902F90089571
:100960001F920F920FB60F9211240F931F932F9384
:100970003F934F935F936F937F938F939F93AF9327
:10098000BF93EF93FF93DF93CF930F92CDB7DEB773
:1009900081E08093500283E089838DE167E18E01DD
:1009A0000F5F1F4FA80121E030E00E946A138CEF17
:1009B00089838DE167E1A80121E030E00E946A139C
:1009C0000F90CF91DF91FF91EF91BF91AF919F91E8
:1009D0008F917F916F915F914F913F912F911F91D7
:1009E0000F910F900FBE0F901F901895EF92FF92EE
:1009F0000F931F93DF93CF9300D0CDB7DEB780E086
:100A000090E0A0E0B0E08093890590938A05A093E0
:100A10008B05B0938C0580938D0590938E05A093E4
:100A20008F05B093900580937D0590937E05A093EC
:100A30007F05B09380058093810590938205A093F4
:100A40008305B09384058093850590938605A093D4
:100A50008705B09388050E94A21281E30E94840654
:100A600082E08A8372E0E72EF12CEC0EFD1E8DE110
:100A700066E1A70121E030E00E946A130197B9F016
:100A800082E309C083E307C084E305C085E303C0B4
:100A900086E301C087E30E94840680E00F900F90F8
:100AA000CF91DF911F910F91FF90EF9008958DE10D
:100AB00066E18E010F5F1F4FA80121E030E00E9428
:100AC000AB120197F9F61A828DE168E1A70121E0E6
:100AD00030E00E946A130197B9F68DE168E1A80140
:100AE00021E030E00E94AB12019781F684E18A8315
:100AF0008DE16AE1A70121E030E00E946A130197CD
:100B000039F68DE16AE1A80121E030E00E94AB12E4
:100B1000019709F0BFCF1092690081E08DBB8093EF
:100B20004E0288E30E94840681E0B8CF282F90917E
:100B30005F029C30E9F0F894992321F48091C00081
:100B400085FD12C080915D02E82FF0E0EF5AFD4F65
:100B500020838F5F80935D028C3011F410925D02D0
:100B60009F5F90935F0202C02093C600789408951F
:100B7000FFCF0F931F93CF93DF938AED0E949605CB
:100B8000809170030E9496051091700381E20E948B
:100B90009605809172030E94960580917203180F4A
:100BA000155000E01BC0C02FD0E0FE01E159FC4F02
:100BB00085818A3D21F0803B11F08A3B41F480EB36
:100BC0000E949605FE01E159FC4F858180950E94A7
:100BD0009605C159DC4F8D81180F0F5F809173030B
:100BE000081708F31A3D21F0103B11F01A3B31F4BD
:100BF00080EB0E949605812F809501C0812F0E9475
:100C000096058AEB0E949605DF91CF911F910F9177
:100C100008951F920F920FB60F9211248F939F93F6
:100C2000EF93FF9380915F02882399F08150809326
:100C30005F0280915E02E82FF0E0EF5AFD4F908155
:100C40009093C6008F5F80935E028C3011F41092F7
:100C50005E02FF91EF919F918F910F900FBE0F90C9
:100C60001F9018951F920F920FB60F9211248F9319
:100C70009F93EF93FF938091C0008C71C9F4809192
:100C80006C039091C600E82FF0E0E05AFD4F90838E
:100C90008F5F80936C0380916E038F5F80936E03F0
:100CA000882321F081E08093910502C01092910584
:100CB000FF91EF919F918F910F900FBE0F901F901A
:100CC00018951092C5002AE02093C400E0ECF0E0F3
:100CD00020812D7F208328ED2093C10026E02093E2
:100CE000C20090937D0480937C0410929105109231
:100CF0007E0410927F04109292051092800410924C
:100D000082041092810408950E9496050895CF935D
:100D1000DF93EC0103C021960E9496058881882309
:100D2000D1F7DF91CF910895909171039093700363
:100D3000109272038093740381E0809373030E9486
:100D4000B9051092920508959091710390937003E4
:100D500091E09093720380937403909373030E94C5
:100D6000B9051092920508959091710390937003C4
:100D700092E0909372038093740381E080937303F5
:100D80000E94B905109292050895CF92EF920F93A9
:100D9000909171039093700393E09093720380930A
:100DA0007403609375034093760320937703009355
:100DB0007803E0927903C0927A0387E0809373030B
:100DC0000E94B905109292050F91EF90CF9008956F
:100DD0001F93CF93DF9390916E03992309F4DBC0A7
:100DE00080916D03E82FF0E0E05AFD4F20818F5F86
:100DF00080936D03F894892F815080936E037894CB
:100E0000882311F41092910580918004843069F454
:100E10002A3B59F420937B048091810480937303CF
:100E200081E080937E04109280048091800484305D
:100E3000A1F4809181049091820431E0863093077F
:100E400050F4FC01E159FC4F2583019690938204F4
:100E50008093810402C010928004809180048330CA
:100E600029F42093720384E08093800480918004AD
:100E7000823029F42093710383E080938004809171
:100E80008004813051F4213231F42093700382E0E8
:100E90008093800402C01092800480918004882393
:100EA00079F42A3D69F480917E04882349F42093E3
:100EB0006F03109282041092810481E08093800479
:100EC00080917E04882309F455C010927E0410910D
:100ED000730364E773E0EB0120E030E020C0888119
:100EE000803BD1F4CD0101972817390720F01093EA
:100EF00073030E94A81C898180958883F901EC58AE
:100F0000FC4FAD014D585C4F02C08181808331960A
:100F1000E417F507D1F711502F5F3F4F2196A12F0E
:100F2000B0E02A173B07D8F2A159BC4F14965C9148
:100F300050937A04912F91509093730340917003D2
:100F400080916F03480F80917103480F8091720365
:100F5000480F292F30E02C583C4F04C0FB018191F1
:100F6000BF01480F62177307C9F7451719F481E0ED
:100F700080937F0480917F04882371F010927F0416
:100F800081E080939205E0917C04F0917D048FE6EE
:100F900093E0099501C0FFCFDF91CF911F91089594
:100FA0000E94B2141092830408950E94AF14089511
:100FB000AF92BF92CF92DF92EF92FF920F931F9367
:100FC000CF93DF937B018C01EA0180918404882315
:100FD00011F40E94A81C80918304882311F080E002
:100FE0004EC081E080938304C801B70120E132E064
:100FF00040E050E00E94201C59016A01C801B7017D
:1010000020E132E040E050E00E94201C7B018C0196
:10101000E5E8F4E0119285E0E031F807D9F788EED1
:1010200080938504D601C50126E0B695A7959795CE
:1010300087952A95D1F78F7780938604BB27A12FB8
:10104000902F8F2D83702A2D220F220F822B8093B9
:101050008704E09288048FEF8093890480938A0448
:1010600080938B0480938C0485E894E068E0AE0163
:101070000E9493148091C9058823E1F381E0DF91F8
:10108000CF911F910F91FF90EF90DF90CF90BF9085
:10109000AF9008956F927F928F929F92AF92BF927E
:1010A000CF92DF92EF92FF920F931F93CF93DF9334
:1010B000EC014A015B01722E80918404882311F4B3
:1010C0000E94A81C80918304882311F080E0D6C080
:1010D00081E080938304CB01BA0120E132E040E05B
:1010E00050E00E94201C69017A0183E58093850409
:1010F000D701C60176E0B695A795979587957A951D
:10110000D1F7182F1F7710938604622E660C660C99
:10111000609287041092880485E894E064E040E0DF
:101120000E947E148091C9058823E1F382EE94E049
:101130000197F1F7C501B40120E132E040E050E051
:101140000E94201C9B01AC01DA01C901870D911D91
:10115000A11DB11D81519240A040B04010F4072D57
:1011600002C000E1021B82E880938504109386048C
:10117000BB27A52F942F832F837086298093870404
:1011800020938804A02EBB2429E834E0C901BE01C5
:10119000402F50E00E94AD1C602F6C5F89E894E006
:1011A000049740E00E947E148091C9058823E1F3F2
:1011B00088EC90E024EF31E0F9013197F1F70197E5
:1011C000D9F7071508F057C0A70196012F5F3F4FC9
:1011D0004F4F5F4FF72CF01A83E580938504DA01B7
:1011E000C90136E0B695A795979587953A95D1F7B9
:1011F000182F1F7710938604022F000F000F009303
:1012000087041092880485E894E064E040E00E943E
:101210007E148091C9058823E1F382EE94E0019762
:10122000F1F782E880938504109386040093870485
:10123000109288049E012A0D3B1D49E854E0CA0122
:10124000B9014F2D50E00E94AD1C54E0F50E89E825
:1012500094E004976F2D40E00E947E148091C905B0
:101260008823E1F388EC90E024EF31E0F901319735
:10127000F1F70197D9F71092830481E0DF91CF91C4
:101280001F910F91FF90EF90DF90CF90BF90AF90A4
:101290009F908F907F906F9008956F927F928F9222
:1012A0009F92AF92BF92CF92DF92EF92FF920F93F5
:1012B0001F93CF93DF937B018C013A01822E8091A3
:1012C0008404882311F40E94A81C8091830488233D
:1012D00011F080E0ADC081E080938304C801B701C4
:1012E00020E132E040E050E00E94201C59016A01F8
:1012F000C801B70120E132E040E050E00E94201C2C
:101300007B018C01D801C701880D911DA11DB11D64
:1013100081519240A040B04010F4982C03C030E1BD
:10132000932E9E18C5E8D4E0FE01119285E0E031CD
:10133000F807D9F782ED80938504D601C50126E030
:10134000B695A795979587952A95D1F78F7780932E
:101350008604BB27A12F902F8F2D83702A2D220F5B
:10136000220F822B80938704E09288048FEF809372
:10137000890480938A0480938B0480938C0485E88D
:1013800094E068E0492D0E947E148091C90588236D
:10139000E1F3092D10E02DE834E0C301B901492D36
:1013A00050E00E94AD1C981408F041C0A6019501C0
:1013B0002F5F3F4F4F4F5F4FF82CF918199285E080
:1013C000C031D807D9F782ED80938504DA01C901CD
:1013D000E6E0B695A79597958795EA95D1F78F772B
:1013E00080938604822F880F880F80938704109241
:1013F00088048FEF8093890480938A0480938B0400
:1014000080938C0485E894E068E04F2D0E947E1460
:101410008091C9058823E1F39301200F311F4DE826
:1014200054E0C901BA014F2D50E00E94AD1C81E08B
:10143000DF91CF911F910F91FF90EF90DF90CF90B0
:10144000BF90AF909F908F907F906F9008950E9473
:101450007114E5E8F4E0119285E0E031F807D9F77E
:101460008FE98093850485E894E061E044E00E9480
:101470007E148091C9058823E1F3809186048F3121
:1014800081F480918704807E803259F490918804A1
:10149000913039F480918904882319F4909384045D
:1014A00002C010928404809184040895AF92BF9288
:1014B000CF92DF92EF92FF920F931F935B016C012B
:1014C0002EE034E74AED5BE30E948C167B018C0131
:1014D00020E030E040E85FE30E94921888232CF17E
:1014E000C801B70120E030E04FE753E40E94321812
:1014F00018160CF06CC0C601B50120E030E04AE7D8
:1015000054E40E9486175B016C0125E535E545ED45
:1015100050E40E948C167B018C0120E030E040E812
:101520005FE30E949218882314F461E054C0C8015C
:10153000B70120E030E04FE753E40E94321818165C
:101540000CF045C0C601B50120E030E04AE754E4A4
:101550000E9486175B016C0120E030E44CE955E401
:101560000E948C167B018C0120E030E040E85FE3B4
:101570000E94921888231CF461E070E024C0C80126
:10158000B70120E03FEF4FE757E40E9432181816EA
:10159000B4F4C601B50120E030E040E251E40E941D
:1015A0008C160E94B61484EF91E005C0FC013197BF
:1015B000F1F76150704061157105C1F70EC0C801A7
:1015C000B7010E94B614CB010197F1F706C0C8011C
:1015D000B7010E94B6146A95F1F71F910F91FF9021
:1015E000EF90DF90CF90BF90AF900895AF92BF92F1
:1015F000CF92DF92EF92FF920F931F93DF93CF93DF
:1016000000D00F92CDB7DEB7272F382F492F55279F
:1016100029839C01442755272A836B837E010894E4
:10162000E11CF11C84E0A82EB12CAC0EBD1E30C014
:10163000C601002E02C0959587950A94E2F780FFB7
:101640000DC05E9A60E070E086E994E40E94560A5C
:101650005E9860E070E088E494E40CC05E9A60E01C
:1016600070E088EC93E40E94560A5E9860E070E0B7
:1016700088EC94E40E94560A015010408FEF0F3F0F
:101680001807B1F60894E11CF11CEA14FB0439F0C8
:10169000F7018081C82EDD2407E010E0C9CF0F904C
:1016A0000F900F90CF91DF911F910F91FF90EF90CE
:1016B000DF90CF90BF90AF9008955E98569A0895AE
:1016C000CF92DF92EF92FF921F936B017C01F8940F
:1016D00010E0C701B6010E94F60A1F5F1A33C9F76E
:1016E00078945E988AEF90E00197F1F71F91FF9050
:1016F000EF90DF90CF9008951F93F89410E060E092
:1017000070E080E090E00E94F60A1F5F1A33B9F79C
:1017100078945E988AEF90E00197F1F71F91089511
:10172000CF92DF92EF92FF920F931F936B017C0198
:10173000042F4B3310F00AE302C04423E9F0F8947D
:1017400011E0C701B6010E94F60A1F5F0117C8F732
:101750000A3359F0102F1F5F60E070E080E090E0E6
:101760000E94F60A1F5F1B33B9F778945E988AEFE0
:1017700090E00197F1F702C00E947C0B1F910F913E
:10178000FF90EF90DF90CF900895F89440919305EB
:1017900050919405609195057091960580E090E0D8
:1017A0000E94641E78940895F89480E090E00E946E
:1017B0003C1E6093930570939405809395059093D8
:1017C00096057894089581E085B914B818B817B8CB
:1017D00080E98BB98AB90895882311F45C9A089539
:1017E0005C9808955C9902C05C9A08955C9808958D
:1017F000882311F45F9A08955F9808955F9902C055
:101800005F9A08955F980895CF92DF92EF92FF92CA
:101810000F931F936B017C01AA27BB27642F0E94A3
:10182000011C082F10E020E030E0322F212F102F74
:101830000027BB27AF2D9E2D8D2D0E94011C080F68
:10184000111D211D311D322F212F102F00278C2D0E
:101850000E94011C080F111D211D311DB801C90175
:101860001F910F91FF90EF90DF90CF9008951F93FD
:1018700020913605822F8C548E3050F480912001B7
:10188000873530F086E58093200191E011E002C0B9
:1018900090E010E0822F8654803158F4809120012E
:1018A0008D3438F08CE48093200191E044E011E025
:1018B00001C042E0822F8454883050F4809120018E
:1018C000873430F086E48093200191E040E111E01C
:1018D000243480F480912001853460F084E4809386
:1018E000200110922A0510922B0510922C051092BF
:1018F0002D0516C0992391F0609193057091940580
:1019000080919505909196050E94040C60932A059C
:1019100070932B0580932C0590932D05112319F0BE
:1019200081E0809311051F9108950F931F93F89400
:101930000E94E30B82E39FE00E9461060E94AF10C9
:101940000E94421278940E94E9110E94270A88237B
:10195000A1F05C988CED95E024EF31E0F90131972E
:10196000F1F70197D9F75C9A8CED95E024EF31E01F
:10197000F9013197F1F70197D9F70E9428020E94E7
:101980005D0B0E94D40B8091930590919405A091DA
:101990009505B091960580932A0590932B05A09309
:1019A0002C05B0932D0583E068ED7EE00E9479124E
:1019B00090932F0580932E050AE311E08091910505
:1019C000882371F080919205882351F4809110054D
:1019D000882331F480913B05882311F40E94E806A6
:1019E0008091370590913805A0913905B0913A055D
:1019F0000196A11DB11D8093370590933805A093E2
:101A00003905B0933A05815A9648A140B04080F01C
:101A100010923705109238051092390510923A0548
:101A200080913505882321F00E94370C10923505EE
:101A30001899FAC080911005882309F081C05F9839
:101A40006091AF057091B0058091B1059091B2059C
:101A50002AE330E040E050E00E94201C2093210562
:101A600030932205409323055093240520932505A8
:101A70003093260540932705509328051093290598
:101A800080E00E940A113EC080913C0590913D0586
:101A9000A0913E05B0913F0582179307A407B507B3
:101AA00020F480913B05882379F760912A05709195
:101AB0002B0580912C0590912D05409129050E94C0
:101AC000900B809129058F5F8093290580912505D2
:101AD00090912605A0912705B09128052091210518
:101AE000309122054091230550912405820F931FC8
:101AF000A41FB51F8093250590932605A093270565
:101B0000B093280580913B05882349F02091250555
:101B1000309126054091270550912805B5CF609159
:101B20002A0570912B0580912C0590912D050E941E
:101B3000600B10923C0210923D021093100574C08D
:101B4000109210056091C3057091C4058091C50580
:101B50009091C6052AE330E040E050E00E94201C4E
:101B600020932105309322054093230550932405AB
:101B7000209325053093260540932705509328058B
:101B80000093290585E00E940A113EC080913C0522
:101B900090913D05A0913E05B0913F0582179307B6
:101BA000A407B50720F480913B05882379F760915D
:101BB0002A0570912B0580912C0590912D0540915F
:101BC00029050E94900B8091290581508093290559
:101BD0008091250590912605A0912705B0912805B3
:101BE0002091210530912205409123055091240533
:101BF000820F931FA41FB51F809325059093260580
:101C0000A0932705B093280580913B05882349F0D0
:101C100020912505309126054091270550912805F2
:101C2000B5CF0E947C0B5F9A80911005882309F440
:101C3000C5CE80911105882361F010921105609145
:101C40002A0570912B0580912C0590912D050E94FD
:101C5000600B80911205882331F080913B05882329
:101C600011F41092120580911905882331F08091AA
:101C70003B05882311F4109219054D9B26C08091D5
:101C80001705882311F58091130590911405A091F3
:101C90001505B09116050196A11DB11D8093130580
:101CA00090931405A0931505B093160581519742A2
:101CB000A040B04050F010931705109213051092F9
:101CC000140510921505109216054D990AC0109230
:101CD0001705109213051092140510921505109215
:101CE000160580911205882351F5809117058823E8
:101CF00051F080911805882331F4109318055C98F1
:101D000084E00E940A1180911805882359F080917F
:101D10001705882339F080913B05882319F484E066
:101D20000E940A1180911805882349F080911705B7
:101D3000882329F4109218055C9A0E94F51080916E
:101D40003C02882359F010923C02809112058823AE
:101D500029F41093120583E00E940A1180913D023C
:101D6000882399F010923D0280911905882369F427
:101D700080911205882349F480911805882329F45D
:101D80001093190582E00E940A1180913B05882377
:101D900009F014CE80911205882309F00FCE8091AE
:101DA0001805882309F00ACE81E00E940A1106CEA8
:101DB00080913005843600F58F5F80933005E09187
:101DC0002E05F0912F052081318140E050E0809177
:101DD000310590913205A0913305B0913405820F01
:101DE000931FA41FB51F8093310590933205A093D4
:101DF0003305B0933405089580913505882389F51E
:101E000060913105709132058091330590913405D0
:101E100024E630E040E050E00E94201CCA01B901F5
:101E20000E94741920E030E04AEF52E40E948C16C0
:101E300020E030E040E85AE30E948C160E94CD1C5E
:101E40000E94B6146093360581E0809335051092A8
:101E50003005109231051092320510923305109220
:101E600034050895CF92EF920F93CF93DF93EC0157
:101E70008981813209F06AC18B81823009F45AC0AC
:101E8000833030F4882371F0813009F060C10CC0D8
:101E9000813109F4C7C0823109F416C1803109F0DB
:101EA00056C16FC080E06AC0809177059091780537
:101EB000BC0197FF04C066277727681B790B97FD45
:101EC00002C050E001C050E88091790590917A05F8
:101ED000DC0197FF04C0AA27BB27A81BB90B97FDFD
:101EE00002C040E001C040E880917B0590917C05F4
:101EF000FC0197FF04C0EE27FF27E81BF90B97FDB5
:101F000002C000E001C000E8872F992787FD9A955D
:101F10002B2F332727FD3A95422B2F2F332727FDD1
:101F20003A95022B852B2A2FEE2EC09036050E9463
:101F3000C5060FC18D8190E0A0E0B0E0BA2FA92FB7
:101F4000982F88272E81820F911DA11DB11DBA2FB8
:101F5000A92F982F88272F81820F911DA11DB11DB8
:101F60008093930590939405A0939505B09396055F
:101F700081E0809311050E94C50B82E00E94A406B7
:101F8000E8C00D8180911B05081709F049C00023A6
:101F900049F41092970510929805109299051092A5
:101FA0009A0525C0E02FF0E0BF01660F771F660F8E
:101FB000771F69567A4F3197EE0FFF1FEE0FFF1F05
:101FC0009F0129563A4FE155FA4F80819181A281B4
:101FD000B381F9012081318142815381820F931FA6
:101FE000A41FB51FFB0180839183A283B383E02FDD
:101FF000F0E0EE0FFF1FEE0FFF1FE155FA4F1082CA
:1020000011821282138210921C0510921D051092EB
:102010001E0510921F0581E080931A0580E1AECF66
:1020200080E195C080911A05882309F44BC04D8149
:1020300050E060E070E0762F652F542F44278E81AA
:10204000480F511D611D711D762F652F542F442798
:102050008F81480F511D611D711D762F652F542FE3
:1020600044278885480F511D611D711D40931C0533
:1020700050931D0560931E0570931F052C812450FD
:1020800020932005E0911B05F0E0EE0FFF1FEE0FFF
:10209000FF1FE956FA4F80819181A281B381480FD9
:1020A000591F6A1F7B1FCE0109960E944A08882388
:1020B00039F00E94FE0B809120050E94B40649C0B1
:1020C00010921A0581E143C09D8180911B059817EC
:1020D000D9F580911A058823B9F1E92FF0E0EE0FC8
:1020E000FF1FEE0FFF1FE155FA4F20912005809151
:1020F0001C0590911D05A0911E05B0911F05820F32
:10210000911DA11DB11D80839183A283B383109281
:102110001A0582E10E94A40680911B058F5F8093BF
:102120001B05863079F410921B0588EE93E024EFAE
:1021300031E0F9013197F1F70197D9F70E94D611F3
:102140005F9A07C05F9805C082E101C08B810E9441
:102150009406DF91CF910F91EF90CF9008951F9348
:1021600010928000109281001092890010928800D5
:1021700010E01F5FE12FF0E0EE0FFF1FEF5DFE4F5D
:102180006081718180E090E024E43CEA40E050E02E
:102190000E94E21B9B01AC0160E07DE281E391E0E3
:1021A0000E94421C2150304040405040203080E08E
:1021B000380781E0480780E05807D8F610934405B7
:1021C000309387002093860080918600909187004D
:1021D0009093C8058093C70582E08093800088E1D2
:1021E00080938100219A1F910895EFE6F0E08081AD
:1021F0008E7F8083E0E8F0E080818F738083E1E868
:10220000F0E08081887F808329980E94D007109217
:102210003B0508950F931F93863010F00E94A81C71
:10222000082F10E0F801EE0FFF1FEE0FFF1FE15522
:10223000FA4F80819181A281B3810097A105B105F8
:1022400009F45EC080913B05882311F00E94F510CF
:1022500081E080933B05000F111F000F111FF80153
:10226000E956FA4F608171818281938145E455E09E
:102270000E94D80701551A4FF80180819181A281EF
:10228000B3818093400590934105A0934205B0939C
:10229000430510923C0510923D0510923E051092A8
:1022A0003F0580914505809388000E94D507809165
:1022B0008000806880938000809181002091440597
:1022C000422F4170482B822F8695869590E0817031
:1022D0009070880F991F880F991F482B269530E022
:1022E00021703070220F331F422B409381001092D7
:1022F00085001092840080916F00816080936F0050
:102300001F910F9108951F920F920FB60F921124F3
:102310002F933F934F935F936F937F938F939F93ED
:10232000AF93BF93EF93FF9380913C0590913D0550
:10233000A0913E05B0913F050196A11DB11D80936E
:102340003C0590933D05A0933E05B0933F05209139
:102350003C0530913D0540913E0550913F058091EF
:10236000400590914105A0914205B0914305281781
:1023700039074A075B0738F4809145058093880048
:102380000E94D50702C00E94F510FF91EF91BF9106
:10239000AF919F918F917F916F915F914F913F91FD
:1023A0002F910F900FBE0F901F901895F89487E90A
:1023B00095E064E070E048E150E00E94421E8FEA40
:1023C00095E06CE170E048E150E00E94421E789494
:1023D0000895F89487E995E064E070E048E150E002
:1023E0000E942C1E8FEA95E06CE170E048E150E01D
:1023F0000E942C1E7894089508951F920F920FB694
:102400000F9211241F932F933F934F935F936F93DA
:102410007F938F939F93AF93BF93EF93FF9310910D
:102420007C001F70E12FF0E080917800909179009E
:10243000EE0FFF1FDF01A95ABA4F8D939C93E95B02
:10244000FA4F0190F081E02D09951F5F183008F0D8
:1024500010E010937C0080917A00806480937A0071
:10246000FF91EF91BF91AF919F918F917F916F916C
:102470005F914F913F912F911F910F900FBE0F9041
:102480001F90189580914605882319F510927E00BB
:1024900010927C008DE880937A0010927B0080E09F
:1024A00090E02CEF31E1FC01E95AFA4F11821082E1
:1024B000FC01E95BFA4F318320830296803191055C
:1024C00091F780917A00806480937A0081E0809314
:1024D00046050895E82F80914605882311F40E944F
:1024E000A81CF0E0EE0FFF1FE95AFA4F808191819E
:1024F0000895382F80914605882311F0383010F068
:102500000E94A81C20917E00E32FF0E081E090E083
:10251000032E02C0880F991F0A94E2F7282B2093FC
:102520007E006115710531F0EE0FFF1FE95BFA4F78
:1025300071836083232F30E0220F331F295A3A4FD3
:10254000C9010895E9EBF0E080818C7F80838CE500
:102550008093B80008950F931F93782F162FDA01F8
:10256000F894E0E0F0E004EA94E8682F616080917C
:10257000BC008B7F8093BC003196EB30F10511F4E9
:10258000789415C00093BC0048EE53E08091BC00E5
:1025900087FD03C041505040C9F78091B900887F42
:1025A000803141F0883371F3883021F078946FEFF7
:1025B0007FEF8CC07093BB009093BC0048EE53E05B
:1025C0008091BC0087FD03C041505040C9F7809105
:1025D000B900887F803259F28833A1F2883109F03E
:1025E0006FC01093BB009093BC0048EE53E0809105
:1025F000BC0087FD03C041505040C9F78091B9002D
:10260000887F803309F459C0883309F4BBCF8832FE
:1026100009F056C00093BC0048EE53E08091BC0026
:1026200087FD03C041505040C9F78091B900887FB1
:10263000803131F0883309F4A5CF883009F040C0EB
:102640006093BB009093BC0048EE53E08091BC00C7
:1026500087FD03C041505040C9F78091B900887F81
:10266000803429F0883449F1883351F58BCF60E00C
:1026700070E01FC02150304011F484E801C084ECA8
:102680008093BC0048EE53E08091BC0087FD03C0FE
:1026900041505040C9F78091B900887F803521F0C2
:1026A000883571F420E030E08091BB008D936F5F3E
:1026B0007F4F12161306F4F205C060E070E002C00E
:1026C0006FEF7FEF84E98093BC007894CB011F917A
:1026D0000F910895AF92BF92CF92DF92EF92FF9247
:1026E0000F931F93CF93DF93C82ED62E8A017901C3
:1026F000F894C0E0D0E024EAA22E94E8B92E8091AC
:10270000BC008B7F8093BC002196CB30D10511F4A7
:10271000789418C081E40E948406A092BC0028EE40
:1027200033E08091BC0087FD03C021503040C9F7E1
:102730008091B900887F803141F0883359F3883027
:1027400021F07894CFEFDFEF67C082E40E94840627
:10275000C092BB00B092BC0028EE33E08091BC0078
:1027600087FD03C021503040C9F78091B900887FB0
:10277000803209F4C4CF883369F2883109F043C04C
:1027800083E40E948406D092BB00B092BC0028EE85
:1027900033E08091BC0087FD03C021503040C9F771
:1027A0008091B900887F803351F0883309F4B2CF2B
:1027B000883249F5C0E0D0E084E8D82E1DC0C0E0E2
:1027C000D0E023C084E40E948406F80180818093D5
:1027D000BB00D092BC0028EE33E08091BC0087FDA6
:1027E00003C021503040C9F78091B900887F8832FA
:1027F00051F40F5F1F4F2196C7018C1B9D0B1816BC
:10280000190604F302C0CFEFDFEF85E40E948406CF
:1028100084E98093BC007894CE01DF91CF911F9121
:102820000F91FF90EF90DF90CF90BF90AF90089501
:102830001F920F920FB60F9211242F933F934F9335
:102840005F936F938F939F93EF93FF9390916E0598
:1028500060916C0580916D05262F30E0280F311DA9
:10286000492F50E0421753075CF48EB5E09168059C
:10287000F0916905E40FF51F80839F5F90936E05CB
:1028800080916E05482F50E0861740F4E09168056E
:10289000F0916905E40FF51F808104C042175307CA
:1028A0001CF48FEF8EBD0FC080916705882339F02F
:1028B0008EB5E0916A05F0916B05808301C02A9A7C
:1028C00081E08093C905FF91EF919F918F916F9166
:1028D0005F914F913F912F910F900FBE0F901F90DE
:1028E00018952A9A84B18C6284B98DB580ED8CBD1F
:1028F0008CB581608CBD1092C9050895FC011092C1
:102900006E05909369058093680560936C0540930C
:102910006D051092C9052A98662311F0808101C0C7
:102920008FEF8EBD0895FC0110926E05909369059E
:102930008093680560936C0510926D0550936B054C
:1029400040936A0581E0809367051092C9052A9833
:10295000662311F0808101C08FEF8EBD08958FEF47
:102960008EBD0895109267052A9A0895EF92FF92FE
:102970000F931F937B018C0120E030E040E05FE487
:102980000E94621888238CF0C801B70120E030E073
:1029900040E05FE40E942E160E9420199B01AC01CA
:1029A000205030404040504806C0C801B7010E9446
:1029B00020199B01AC01B901CA011F910F91FF9031
:1029C000EF900895A0E0B0E0E8EEF4E10C94711C03
:1029D000DC012B01FA019C91923008F439C1EB0122
:1029E0008881823008F433C1943069F4843009F06E
:1029F0002FC111969C9111978981981709F428C1CC
:102A0000ADE2B1E025C1843009F421C18230A9F4DE
:102A1000923009F01DC19A01AD0188E0EA010990E8
:102A2000AE01E90109929E018150C1F7E20189815D
:102A300011969C918923818308C1923009F407C1C2
:102A400012962D903C901397EB018A819B811496EE
:102A5000AD90BD90CD90DC901797EC80FD800E81FD
:102A60001F819101281B390BB90137FF04C066276C
:102A70007727621B730B603271050CF061C0121670
:102A800013066CF537014801062E04C0969487940E
:102A9000779467940A94D2F721E030E040E050E068
:102AA00004C0220F331F441F551F6A95D2F72150CF
:102AB0003040404050402E213F21402351232115DA
:102AC00031054105510521F021E030E040E050E0C2
:102AD00079018A01E628F728082919293CC0232B07
:102AE000D1F1260E371E35014601062E04C09694FC
:102AF0008794779467940A94D2F721E030E040E01D
:102B000050E004C0220F331F441F551F6A95D2F7AF
:102B100021503040404050402A213B214C215D2132
:102B2000211531054105510521F021E030E040E05B
:102B300050E059016A01A628B728C828D9280BC037
:102B4000821593052CF01C01AA24BB24650103C047
:102B5000EE24FF24870111969C91D20111968C914D
:102B6000981709F445C0992339F0A80197012A194B
:102B70003B094C095D0906C0A60195012E193F09C4
:102B8000400B510B57FD08C01182338222822483EF
:102B90003583468357831DC081E08183338222823F
:102BA00088279927DC01821B930BA40BB50B848328
:102BB0009583A683B7830DC0220F331F441F551F73
:102BC000248335834683578382819381019793833E
:102BD00082832481358146815781DA01C9010197B9
:102BE000A109B1098F5F9F4FAF4FBF4328F30BC0BF
:102BF000918333822282EA0CFB1C0C1D1D1DE48292
:102C0000F5820683178383E08083248135814681A2
:102C1000578157FF1AC0C901AA2797FDA095BA2F5F
:102C200081709070A070B070569547953795279534
:102C3000822B932BA42BB52B84839583A683B783F8
:102C400082819381019693838283DF0101C0D20147
:102C5000CD01CDB7DEB7E2E10C948D1CA0E2B0E06F
:102C6000E4E3F6E10C947D1C69837A838B839C8377
:102C70002D833E834F835887E9E0EE2EF12CEC0E36
:102C8000FD1ECE010196B7010E94111B8E010F5E41
:102C90001F4FCE010596B8010E94111B8A8991E051
:102CA00089278A8BC701B801AE01475E5F4F0E943A
:102CB000E2140E943C1AA096E6E00C94991CA0E253
:102CC000B0E0E5E6F6E10C947D1C69837A838B83A2
:102CD0009C832D833E834F835887F9E0EF2EF12CA0
:102CE000EC0EFD1ECE010196B7010E94111B8E0154
:102CF0000F5E1F4FCE010596B8010E94111BC70140
:102D0000B801AE01475E5F4F0E94E2140E943C1A78
:102D1000A096E6E00C94991CA0E2B0E0E2E9F6E1AE
:102D20000C94711C69837A838B839C832D833E83EF
:102D30004F835887CE010196BE01675F7F4F0E9487
:102D4000111BCE010596BE016F5E7F4F0E94111BC5
:102D50009985923088F089898230C8F0943019F4CE
:102D6000823051F404C0843029F4923081F48DE231
:102D700091E0C6C0923049F420E09A858A89981380
:102D800021E02A87CE010996BBC0823049F420E0B9
:102D90009A858A89981321E02A8BCE014196B0C08A
:102DA0002D843E844F8458886D887E888F88988CC7
:102DB000EE24FF248701AA24BB24650140E050E0F3
:102DC00060E070E0E0E0F0E0C10181709070892B7C
:102DD000E9F0E60CF71C081D191D9A01AB012A0D3C
:102DE0003B1D4C1D5D1D80E090E0A0E0B0E0E614CE
:102DF000F7040805190520F481E090E0A0E0B0E0B8
:102E0000BA01A901480F591F6A1F7B1FAA0CBB1CDE
:102E1000CC1CDD1C97FE08C081E090E0A0E0B0E093
:102E2000A82AB92ACA2ADB2A3196E032F10549F0EC
:102E3000660C771C881C991C5694479437942794E9
:102E4000C3CFFA85EA892B893C898B859C85280F1D
:102E5000391F2E5F3F4F17C0CA0181709070892BB8
:102E600061F016950795F794E79480E090E0A0E074
:102E7000B0E8E82AF92A0A2B1B2B76956795579517
:102E800047952F5F3F4F77FDE7CF0CC0440F551F8D
:102E9000661F771F17FD4160EE0CFF1C001F111FFE
:102EA00021503040403090E0590790E0690790E4AD
:102EB000790760F32B8F3C8FDB01CA018F7790700D
:102EC000A070B07080349105A105B10561F447FD93
:102ED0000AC0E114F1040105110529F0405C5F4FBF
:102EE0006F4F7F4F40781A8EFE1711F081E08A8F66
:102EF0004D8F5E8F6F8F78A383E0898FCE014996C7
:102F00000E943C1AA096E2E10C948D1CA8E1B0E06E
:102F1000ECE8F7E10C94791C69837A838B839C83BA
:102F20002D833E834F835887B9E0EB2EF12CEC0EB6
:102F3000FD1ECE010196B7010E94111B8E010F5E8E
:102F40001F4FCE010596B8010E94111B2985223022
:102F500008F47EC03989323010F4B8017CC08A850B
:102F60009A8989278A87243011F0223031F4231777
:102F700009F06EC06DE271E06EC0343039F41D8628
:102F80001E861F86188A1C861B8604C0323021F4D8
:102F900084E08987B7015FC02B853C858B899C893C
:102FA000281B390B3C872B87ED84FE840F851889FD
:102FB000AD88BE88CF88D88CEA14FB040C051D05AB
:102FC00040F4EE0CFF1C001F111F215030403C87C5
:102FD0002B8720E030E040E050E080E090E0A0E08F
:102FE000B0E460E070E0EA14FB040C051D0540F05D
:102FF000282B392B4A2B5B2BEA18FB080C091D09DF
:10300000B695A79597958795EE0CFF1C001F111F8D
:103010006F5F7F4F6F31710531F7DA01C9018F772B
:103020009070A070B07080349105A105B10561F475
:1030300027FD0AC0E114F1040105110529F0205C07
:103040003F4F4F4F5F4F20782D873E874F87588BDC
:10305000BE01675F7F4FCB010E943C1A6896EAE091
:103060000C94951CA8E1B0E0E8E3F8E10C947D1C19
:1030700069837A838B839C832D833E834F83588718
:1030800089E0E82EF12CEC0EFD1ECE010196B70171
:103090000E94111B8E010F5E1F4FCE010596B801D5
:1030A0000E94111B8985823040F08989823028F086
:1030B000C701B8010E94891B01C08FEF6896E6E046
:1030C0000C94991CA8E1B0E0E8E6F8E10C947D1CB2
:1030D00069837A838B839C832D833E834F835887B8
:1030E00089E0E82EF12CEC0EFD1ECE010196B70111
:1030F0000E94111B8E010F5E1F4FCE010596B80175
:103100000E94111B8985823040F08989823028F025
:10311000C701B8010E94891B01C08FEF6896E6E0E5
:103120000C94991CA8E1B0E0E8E9F8E10C947D1C4E
:1031300069837A838B839C832D833E834F83588757
:1031400089E0E82EF12CEC0EFD1ECE010196B701B0
:103150000E94111B8E010F5E1F4FCE010596B80114
:103160000E94111B8985823040F08989823028F0C5
:10317000C701B8010E94891B01C081E06896E6E0A2
:103180000C94991CA8E0B0E0E8ECF8E10C947A1CEF
:103190009B01AC0183E08983DA01C9018827B7FD6F
:1031A00083959927AA27BB27B82E211531054105FC
:1031B000510519F482E089833AC08823A9F02030B0
:1031C00080E0380780E0480780E8580729F460E08D
:1031D00070E080E09FEC30C0EE24FF248701E21A0B
:1031E000F30A040B150B02C079018A018EE1C82E87
:1031F000D12CDC82CB82ED82FE820F831887C8013E
:10320000B7010E94ED1901971816190684F4082ECB
:1032100004C0EE0CFF1C001F111F0A94D2F7ED82B0
:10322000FE820F831887C81AD90ADC82CB82BA8241
:10323000CE0101960E943C1A2896E9E00C94961C57
:10324000ACE0B0E0E6E2F9E10C94811C69837A839A
:103250008B839C83CE010196BE016B5F7F4F0E94E2
:10326000111B8D81823061F1823050F1843021F464
:103270008E81882351F12EC02F81388537FD20C0E3
:103280006E812F3131051CF06623F9F023C08EE1E9
:1032900090E0821B930B29853A854B855C8504C0A1
:1032A00056954795379527958A95D2F76623B1F0BD
:1032B00050954095309521953F4F4F4F5F4F0EC031
:1032C00020E030E040E050E009C02FEF3FEF4FEF4B
:1032D0005FE704C020E030E040E050E8B901CA01F7
:1032E0002C96E2E00C949D1CA8E0B0E0EAE7F9E13E
:1032F0000C94791C7B018C01611571058105910588
:1033000019F482E0898360C083E089838EE1C82E4E
:10331000D12CDC82CB82ED82FE820F831887C8011C
:10332000B7010E94ED19FC013197F7FF3BC022273E
:1033300033272E1B3F0B57016801022E04C0D69481
:10334000C794B794A7940A94D2F740E050E060E0A5
:1033500070E081E090E0A0E0B0E004C0880F991F29
:10336000AA1FBB1F2A95D2F70197A109B1098E2187
:103370009F21A023B1230097A105B10521F041E0D1
:1033800050E060E070E04A295B296C297D294D837B
:103390005E836F8378878EE190E08E1B9F0B9C830A
:1033A0008B8312C0309781F00E2E04C0EE0CFF1CF0
:1033B000001F111F0A94D2F7ED82FE820F83188737
:1033C000CE1ADF0ADC82CB821A82CE0101960E94DD
:1033D0003C1A2896EAE00C94951CEF92FF920F930A
:1033E0001F937B018C0180E0E81680E0F80681E005
:1033F000080780E0180788F48FEFE816F10401054C
:10340000110531F028F088E090E0A0E0B0E017C0AE
:1034100080E090E0A0E0B0E012C080E0E81680E03C
:10342000F80680E0080781E0180728F088E190E0BE
:10343000A0E0B0E004C080E190E0A0E0B0E020E2D5
:1034400030E040E050E0281B390B4A0B5B0B04C016
:1034500016950795F794E7948A95D2F7F701EB5CF8
:10346000FE4F8081281B310941095109C9011F9173
:103470000F91FF90EF900895DF92EF92FF920F93DC
:103480001F93FC01E480F58006811781D180808143
:10349000823048F480E090E0A0E1B0E0E82AF92A28
:1034A0000A2B1B2BA5C0843009F49FC0823021F465
:1034B000EE24FF24870105C0E114F1040105110584
:1034C00019F4E0E0F0E096C0628173819FEF62380A
:1034D00079070CF05BC022E83FEF261B370B2A313F
:1034E00031052CF020E030E040E050E02AC0B80187
:1034F000A701022E04C076956795579547950A94C3
:10350000D2F781E090E0A0E0B0E004C0880F991FFE
:10351000AA1FBB1F2A95D2F70197A109B1098E21D5
:103520009F21A023B1230097A105B10521F081E0DF
:1035300090E0A0E0B0E09A01AB01282B392B4A2B98
:103540005B2BDA01C9018F779070A070B070803466
:103550009105A105B10539F427FF09C0205C3F4F53
:103560004F4F5F4F04C0215C3F4F4F4F5F4FE0E034
:10357000F0E02030A0E03A07A0E04A07A0E45A07B4
:1035800010F0E1E0F0E079018A0127C060387105B0
:1035900064F5FB01E158FF4FD801C7018F779070A8
:1035A000A070B07080349105A105B10539F4E7FE33
:1035B0000DC080E490E0A0E0B0E004C08FE390E0B4
:1035C000A0E0B0E0E80EF91E0A1F1B1F17FF05C0A0
:1035D00016950795F794E794319687E01695079529
:1035E000F794E7948A95D1F705C0EE24FF2487016C
:1035F000EFEFF0E06E2F679566276795902F9F7726
:10360000D794DD24D7948E2F8695492F462B582F9B
:103610005D29B701CA011F910F91FF90EF90DF90D4
:103620000895FC01DB01408151812281622F6F7777
:1036300070E0221F2227221F9381892F880F822B5F
:10364000282F30E0991F9927991F11969C93119765
:1036500021153105A9F5411551056105710511F4D3
:1036600082E037C082E89FEF13969C938E93129767
:103670009A01AB0167E0220F331F441F551F6A9563
:10368000D1F783E08C930DC0220F331F441F551FC9
:1036900012968D919C911397019713969C938E93FC
:1036A0001297203080E0380780E0480780E4580710
:1036B00058F314962D933D934D935C93179708956B
:1036C0002F3F310579F4411551056105710519F454
:1036D00084E08C93089564FF03C081E08C9312C052
:1036E0001C9210C02F57304013963C932E93129784
:1036F00083E08C9387E0440F551F661F771F8A95E0
:10370000D1F7706414964D935D936D937C931797E6
:1037100008951F93DC01FB019C91923008F447C08F
:103720008081823008F443C0943051F411961C918A
:10373000843099F58181682F70E0611B71093FC069
:10374000843021F0923031F48230B9F181818823C4
:1037500089F12DC011961C9111978230F1F0818171
:103760001817D9F412962D913C9113978281938169
:103770008217930794F028173907BCF014968D919F
:103780009D910D90BC91A02D24813581468157815A
:10379000281739074A075B0718F4112341F00AC0BC
:1037A00082179307A407B50740F4112319F061E0CD
:1037B00070E005C06FEF7FEF02C060E070E0CB010A
:1037C0001F910895629FD001739FF001829FE00DC9
:1037D000F11D649FE00DF11D929FF00D839FF00D90
:1037E000749FF00D659FF00D9927729FB00DE11D3C
:1037F000F91F639FB00DE11DF91FBD01CF01112419
:103800000895991B79E004C0991F961708F0961B3C
:10381000881F7A95C9F78095089597FB092E07268A
:103820000AD077FD04D049D006D000201AF4709554
:1038300061957F4F0895F6F7909581959F4F089574
:10384000A1E21A2EAA1BBB1BFD010DC0AA1FBB1FA4
:10385000EE1FFF1FA217B307E407F50720F0A21B16
:10386000B30BE40BF50B661F771F881F991F1A9483
:1038700069F760957095809590959B01AC01BD01AD
:10388000CF01089597FB092E05260ED057FD04D0D1
:10389000D7DF0AD0001C38F450954095309521951B
:1038A0003F4F4F4F5F4F0895F6F790958095709575
:1038B00061957F4F8F4F9F4F0895AA1BBB1B51E10E
:1038C00007C0AA1FBB1FA617B70710F0A61BB70B90
:1038D000881F991F5A95A9F780959095BC01CD0135
:1038E00008952F923F924F925F926F927F928F92A4
:1038F0009F92AF92BF92CF92DF92EF92FF920F937F
:103900001F93CF93DF93CDB7DEB7CA1BDB0B0FB688
:10391000F894DEBF0FBECDBF09942A883988488845
:103920005F846E847D848C849B84AA84B984C884DB
:10393000DF80EE80FD800C811B81AA81B981CE0FD2
:10394000D11D0FB6F894DEBF0FBECDBFED010895B7
:1039500081E090E0F8940C941F1FFB01DC0102C091
:1039600001900D9241505040D8F708959F939F7752
:10397000EEE389379E0720F4E8E6F0E08AD009C03C
:103980001FD09058A2EA2AED3FE049EC5FE3B6D1A0
:1039900091D00F9007FC905808959DD080F09F37EC
:1039A00040F491110EF4AFC060E070E080E89FE356
:1039B000089526F01B16611D711D811D1CC036C0A7
:1039C000DF93CF931F930F938B01EC01ECE7F0E0B3
:1039D0003BD070D09801AE018B01EC0160E070E04B
:1039E00080E89FE33BD9FAD09801AE010F911F9177
:1039F000CF91DF9198C0882371F4772321F09850FC
:103A0000872B762F07C0662311F499270DC090519C
:103A1000862B70E060E02AF09A95660F771F881F6A
:103A2000DAF7880F9695879597F908959F3F31F0BB
:103A3000915020F4879577956795B795880F911DDC
:103A40009695879597F90895DF93CF931F930F93DA
:103A5000FF92EF92DF927B018C01689405C0DA2E11
:103A6000EF0161D0FE01E894A59125913591459132
:103A70005591AEF3EF0142D1FE019701A801DA940E
:103A800079F7DF90EF90FF900F911F91CF91DF9129
:103A900008959F938F937F936F93FF93EF939B0171
:103AA000AC013AD9EF91FF91CFDF2F913F914F9128
:103AB0005F9132C9092E0394000C11F4882352F04F
:103AC000BB0F40F4BF2B11F460FF04C06F5F7F4F4A
:103AD0008F4F9F4F08958BD1A0F0BEE7B91788F4A0
:103AE000BB279F3860F41616B11D672F782F8827E3
:103AF000985FF7CF869577956795B11D9395963921
:103B0000C8F30895E894BB2766277727CB0197F978
:103B1000089557D128F05CD118F0952309F041C1E0
:103B200046C11124F0CF5BD1A0F3959FD1F3950F3F
:103B300050E0551F629FF001729FBB27F00DB11D31
:103B4000639FAA27F00DB11DAA1F649F6627B00DC1
:103B5000A11D661F829F2227B00DA11D621F739FAA
:103B6000B00DA11D621F839FA00D611D221F749FB8
:103B70003327A00D611D231F849F600D211D822FFF
:103B8000762F6A2F11249F5750408AF0E1F0882346
:103B90004AF0EE0FFF1FBB1F661F771F881F915053
:103BA0005040A9F79E3F510570F0FBC0ACCF5F3F7E
:103BB000ECF3983EDCF3869577956795B795F79586
:103BC000E7959F5FC1F7FE2B880F911D969587950E
:103BD00097F9089511F40EF4EAC028CF08D1D0F374
:103BE0009923D9F3CEF39F57550B87FFE3D00024D9
:103BF000A0E640EA900180585695979528F4805C9D
:103C0000660F771F881F20F026173707480730F404
:103C1000621B730B840B202931294A2BA69517941C
:103C20000794202531254A2758F7660F771F881FEC
:103C300020F026173707480730F4620B730B840B0C
:103C4000200D311D411DA09581F7B901842F915898
:103C5000880F969587950895DC01CB01FC01F999B1
:103C6000FECF06C0F2BDE1BDF89A319600B40D92C8
:103C700041505040B8F70895A6E1B0E044E050E06C
:103C80000C942E1EDC01A40FB51F4150504048F08B
:103C9000CB01840F951F2E910E94531E415050401E
:103CA000D0F70895262FF999FECF92BD81BDF89ADD
:103CB000019700B4021639F01FBA20BD0FB6F89470
:103CC000FA9AF99A0FBE0895242F0E94121F252FE9
:103CD0000E94121F0C946C1E0E94111F272F0C941F
:103CE000121F6FD030F074D020F031F49F3F11F4E8
:103CF0001EF45DC00EF4E095E7FB53C0E92F6FD0D2
:103D000080F3BA17620773078407950718F071F4F8
:103D10009EF5F8CE0EF4E0950B2EBA2FA02D0B01D8
:103D2000B90190010C01CA01A0011124FF27591B00
:103D300099F0593F50F4503E68F11A16F040A22F06
:103D4000232F342F4427585FF3CF46953795279577
:103D5000A795F0405395C9F77EF41F16BA0B620B76
:103D6000730B840BBAF09150A1F0FF0FBB1F661FBD
:103D7000771F881FC2F70EC0BA0F621F731F841F00
:103D800048F4879577956795B795F7959E3F08F026
:103D9000B3CF9395880F08F09927EE0F97958795E5
:103DA000089597F99F6780E870E060E008959FEFBD
:103DB00080EC089591505040660F771F881FD2F70E
:103DC000089500240A941616170618060906089581
:103DD00000240A941216130614060506089557FDCA
:103DE0009058440F551F59F05F3F71F04795880F69
:103DF00097FB991F61F09F3F79F087950895121600
:103E000013061406551FF2CF4695F1DF08C01616AB
:103E100017061806991FF1CF86957105610508945C
:103E20000895262FF999FECF1FBA92BD81BD20BDFE
:103E30000FB6F894FA9AF99A0FBE01960895F8947D
:023E4000FFCFB2
:103E42000000000001000000080000002000000047
:103E5200400000008000000000010000000400009B
:103E62005A000001000800400000010004000000A8
:103E72000000000000000102020303030304040423
:103E820004040404040505050505050505050505E5
:103E920005050505050606060606060606060606C5
:103EA20006060606060606060606060606060606B0
:103EB2000606060606070707070707070707070795
:103EC2000707070707070707070707070707070780
:103ED2000707070707070707070707070707070770
:103EE2000707070707070707070707070707070760
:103EF2000707070707080808080808080808080845
:103F0200080808080808080808080808080808082F
:103F1200080808080808080808080808080808081F
:103F2200080808080808080808080808080808080F
:103F320008080808080808080808080808080808FF
:103F420008080808080808080808080808080808EF
:103F520008080808080808080808080808080808DF
:103F620008080808080808080808080808080808CF
:063F720008080808080021
:00000001FF
